{
  "contractName": "ChainlinkNFT",
  "abi": [
    {
      "inputs": [],
      "stateMutability": "nonpayable",
      "type": "constructor"
    },
    {
      "anonymous": false,
      "inputs": [
        {
          "indexed": true,
          "internalType": "bytes32",
          "name": "id",
          "type": "bytes32"
        }
      ],
      "name": "ChainlinkCancelled",
      "type": "event"
    },
    {
      "anonymous": false,
      "inputs": [
        {
          "indexed": true,
          "internalType": "bytes32",
          "name": "id",
          "type": "bytes32"
        }
      ],
      "name": "ChainlinkFulfilled",
      "type": "event"
    },
    {
      "anonymous": false,
      "inputs": [
        {
          "indexed": true,
          "internalType": "bytes32",
          "name": "id",
          "type": "bytes32"
        }
      ],
      "name": "ChainlinkRequested",
      "type": "event"
    },
    {
      "anonymous": false,
      "inputs": [
        {
          "indexed": true,
          "internalType": "address",
          "name": "oldOwner",
          "type": "address"
        },
        {
          "indexed": true,
          "internalType": "address",
          "name": "newOwner",
          "type": "address"
        }
      ],
      "name": "OwnerSet",
      "type": "event"
    },
    {
      "anonymous": false,
      "inputs": [
        {
          "indexed": false,
          "internalType": "uint256",
          "name": "questComplete",
          "type": "uint256"
        }
      ],
      "name": "callbackRan",
      "type": "event"
    },
    {
      "inputs": [],
      "name": "allowMint",
      "outputs": [
        {
          "internalType": "uint256",
          "name": "",
          "type": "uint256"
        }
      ],
      "stateMutability": "view",
      "type": "function",
      "constant": true
    },
    {
      "inputs": [
        {
          "internalType": "address",
          "name": "newOwner",
          "type": "address"
        }
      ],
      "name": "changeOwner",
      "outputs": [],
      "stateMutability": "nonpayable",
      "type": "function"
    },
    {
      "inputs": [],
      "name": "getOwner",
      "outputs": [
        {
          "internalType": "address",
          "name": "",
          "type": "address"
        }
      ],
      "stateMutability": "view",
      "type": "function",
      "constant": true
    },
    {
      "stateMutability": "payable",
      "type": "receive",
      "payable": true
    },
    {
      "inputs": [
        {
          "internalType": "string",
          "name": "_newBase",
          "type": "string"
        }
      ],
      "name": "setBaseURI",
      "outputs": [],
      "stateMutability": "nonpayable",
      "type": "function"
    },
    {
      "inputs": [],
      "name": "getBaseURI",
      "outputs": [
        {
          "internalType": "string",
          "name": "",
          "type": "string"
        }
      ],
      "stateMutability": "view",
      "type": "function",
      "constant": true
    },
    {
      "inputs": [
        {
          "internalType": "string",
          "name": "_did",
          "type": "string"
        },
        {
          "internalType": "string",
          "name": "_questName",
          "type": "string"
        }
      ],
      "name": "requestCeramicData",
      "outputs": [
        {
          "internalType": "bytes32",
          "name": "_requestId",
          "type": "bytes32"
        }
      ],
      "stateMutability": "nonpayable",
      "type": "function"
    },
    {
      "inputs": [
        {
          "internalType": "bytes32",
          "name": "_requestId",
          "type": "bytes32"
        },
        {
          "internalType": "uint256",
          "name": "_questComplete",
          "type": "uint256"
        }
      ],
      "name": "fulfillCeramicData",
      "outputs": [],
      "stateMutability": "nonpayable",
      "type": "function"
    }
  ],
  "bytecode": "0x6080604052600160045534801561001557600080fd5b5033600660006101000a81548173ffffffffffffffffffffffffffffffffffffffff021916908373ffffffffffffffffffffffffffffffffffffffff160217905550600660009054906101000a900473ffffffffffffffffffffffffffffffffffffffff1673ffffffffffffffffffffffffffffffffffffffff16600073ffffffffffffffffffffffffffffffffffffffff167f342827c97908e5e2f71151c08502a66d44b6f758e3ac2f1de95f02eb95f0a73560405160405180910390a36100f773326c977e6efc84e512bb9c30f76e30c160ed06fb61018660201b60201c565b73b33d8a4e62236ea91f3a8fd7ab15a95b9b7eec7d600760006101000a81548173ffffffffffffffffffffffffffffffffffffffff021916908373ffffffffffffffffffffffffffffffffffffffff1602179055507f6461323061616530653463383433663639343965356362336637636665386334600881905550662386f26fc100006009819055506101ca565b80600260006101000a81548173ffffffffffffffffffffffffffffffffffffffff021916908373ffffffffffffffffffffffffffffffffffffffff16021790555050565b611e10806101d96000396000f3fe6080604052600436106100745760003560e01c8063714c53981161004e578063714c539814610111578063893d20e81461013c578063a6f9dae114610167578063b7d8e484146101905761007b565b80631b8dca7414610080578063414110b5146100ab57806355f804b3146100e85761007b565b3661007b57005b600080fd5b34801561008c57600080fd5b506100956101b9565b6040516100a291906116bb565b60405180910390f35b3480156100b757600080fd5b506100d260048036038101906100cd91906112a6565b6101bf565b6040516100df919061161e565b60405180910390f35b3480156100f457600080fd5b5061010f600480360381019061010a919061125d565b6103d4565b005b34801561011d57600080fd5b5061012661047e565b6040516101339190611639565b60405180910390f35b34801561014857600080fd5b50610151610510565b60405161015e9190611540565b60405180910390f35b34801561017357600080fd5b5061018e600480360381019061018991906111c3565b61053a565b005b34801561019c57600080fd5b506101b760048036038101906101b2919061121d565b61068a565b005b600b5481565b60008083836040516020016101d5929190611506565b604051602081830303815290604052905060006101fc6008543063b7d8e48460e01b6107d2565b90506102d26040518060400160405280600381526020017f6765740000000000000000000000000000000000000000000000000000000000815250600a805461024490611aa8565b80601f016020809104026020016040519081016040528092919081815260200182805461027090611aa8565b80156102bd5780601f10610292576101008083540402835291602001916102bd565b820191906000526020600020905b8154815290600101906020018083116102a057829003601f168201915b5050505050836108039092919063ffffffff16565b61031c6040518060400160405280600b81526020017f7175657279706172616d7300000000000000000000000000000000000000000081525083836108039092919063ffffffff16565b61039b6040518060400160405280600481526020017f70617468000000000000000000000000000000000000000000000000000000008152506040518060400160405280600d81526020017f7175657374436f6d706c65746500000000000000000000000000000000000000815250836108039092919063ffffffff16565b6103ca600760009054906101000a900473ffffffffffffffffffffffffffffffffffffffff1682600954610836565b9250505092915050565b600660009054906101000a900473ffffffffffffffffffffffffffffffffffffffff1673ffffffffffffffffffffffffffffffffffffffff163373ffffffffffffffffffffffffffffffffffffffff1614610464576040517f08c379a000000000000000000000000000000000000000000000000000000000815260040161045b9061165b565b60405180910390fd5b80600a908051906020019061047a929190610fd5565b5050565b6060600a805461048d90611aa8565b80601f01602080910402602001604051908101604052809291908181526020018280546104b990611aa8565b80156105065780601f106104db57610100808354040283529160200191610506565b820191906000526020600020905b8154815290600101906020018083116104e957829003601f168201915b5050505050905090565b6000600660009054906101000a900473ffffffffffffffffffffffffffffffffffffffff16905090565b600660009054906101000a900473ffffffffffffffffffffffffffffffffffffffff1673ffffffffffffffffffffffffffffffffffffffff163373ffffffffffffffffffffffffffffffffffffffff16146105ca576040517f08c379a00000000000000000000000000000000000000000000000000000000081526004016105c19061165b565b60405180910390fd5b8073ffffffffffffffffffffffffffffffffffffffff16600660009054906101000a900473ffffffffffffffffffffffffffffffffffffffff1673ffffffffffffffffffffffffffffffffffffffff167f342827c97908e5e2f71151c08502a66d44b6f758e3ac2f1de95f02eb95f0a73560405160405180910390a380600660006101000a81548173ffffffffffffffffffffffffffffffffffffffff021916908373ffffffffffffffffffffffffffffffffffffffff16021790555050565b816005600082815260200190815260200160002060009054906101000a900473ffffffffffffffffffffffffffffffffffffffff1673ffffffffffffffffffffffffffffffffffffffff163373ffffffffffffffffffffffffffffffffffffffff161461072c576040517f08c379a00000000000000000000000000000000000000000000000000000000081526004016107239061169b565b60405180910390fd5b6005600082815260200190815260200160002060006101000a81549073ffffffffffffffffffffffffffffffffffffffff0219169055807f7cc135e0cebb02c3480ae5d74d377283180a2601f8f644edf7987b009316c63a60405160405180910390a281600b819055507f1d181fea3f2975242f69d19356403d97fee5ec8b3aadc7f7ef1af801a1ea65ee826040516107c591906116bb565b60405180910390a1505050565b6107da61105b565b6107e261105b565b6107f985858584610856909392919063ffffffff16565b9150509392505050565b61081a82846080015161090690919063ffffffff16565b61083181846080015161090690919063ffffffff16565b505050565b600061084d8484846001634042994660e01b61092b565b90509392505050565b61085e61105b565b61086e8560800151610100610b93565b508385600001818152505082856020019073ffffffffffffffffffffffffffffffffffffffff16908173ffffffffffffffffffffffffffffffffffffffff16815250508185604001907bffffffffffffffffffffffffffffffffffffffffffffffffffffffff191690817bffffffffffffffffffffffffffffffffffffffffffffffffffffffff191681525050849050949350505050565b6109138260038351610bfd565b6109268183610d4290919063ffffffff16565b505050565b6000306004546040516020016109429291906114da565b604051602081830303815290604052805190602001209050600454856060018181525050856005600083815260200190815260200160002060006101000a81548173ffffffffffffffffffffffffffffffffffffffff021916908373ffffffffffffffffffffffffffffffffffffffff160217905550807fb5e6e01e79f91267dc17b4e6314d5d4d03593d2ceee0fbb452b750bd70ea5af960405160405180910390a2600082600080886000015189602001518a604001518b606001518a8d6080015160000151604051602401610a2098979695949392919061155b565b604051602081830303815290604052907bffffffffffffffffffffffffffffffffffffffffffffffffffffffff19166020820180517bffffffffffffffffffffffffffffffffffffffffffffffffffffffff83818316178352505050509050600260009054906101000a900473ffffffffffffffffffffffffffffffffffffffff1673ffffffffffffffffffffffffffffffffffffffff16634000aea08887846040518463ffffffff1660e01b8152600401610ade939291906115e0565b602060405180830381600087803b158015610af857600080fd5b505af1158015610b0c573d6000803e3d6000fd5b505050506040513d601f19601f82011682018060405250810190610b3091906111f0565b610b6f576040517f08c379a0000000000000000000000000000000000000000000000000000000008152600401610b669061167b565b60405180910390fd5b600160046000828254610b82919061176f565b925050819055505095945050505050565b610b9b6110c8565b6000602083610baa9190611b39565b14610bd657602082610bbc9190611b39565b6020610bc89190611990565b82610bd3919061176f565b91505b81836020018181525050604051808452600081528281016020016040525082905092915050565b60178111610c2a57610c248160058460ff16901b60ff161784610d6490919063ffffffff16565b50610d3d565b60ff8111610c6c57610c4f601860058460ff16901b1784610d6490919063ffffffff16565b50610c6681600185610d849092919063ffffffff16565b50610d3c565b61ffff8111610caf57610c92601960058460ff16901b1784610d6490919063ffffffff16565b50610ca981600285610d849092919063ffffffff16565b50610d3b565b63ffffffff8111610cf457610cd7601a60058460ff16901b1784610d6490919063ffffffff16565b50610cee81600485610d849092919063ffffffff16565b50610d3a565b67ffffffffffffffff8111610d3957610d20601b60058460ff16901b1784610d6490919063ffffffff16565b50610d3781600885610d849092919063ffffffff16565b505b5b5b5b5b505050565b610d4a6110c8565b610d5c83846000015151848551610da6565b905092915050565b610d6c6110c8565b610d7c8384600001515184610eb0565b905092915050565b610d8c6110c8565b610d9d848560000151518585610f07565b90509392505050565b610dae6110c8565b8251821115610dbc57600080fd5b84602001518285610dcd919061176f565b1115610e0257610e01856002610df288602001518887610ded919061176f565b610f95565b610dfc9190611936565b610fb1565b5b600080865180518760208301019350808887011115610e215787860182525b60208701925050505b60208410610e685780518252602082610e43919061176f565b9150602081610e52919061176f565b9050602084610e619190611990565b9350610e2a565b60006001856020610e799190611990565b610100610e869190611818565b610e909190611990565b905080198251168184511681811785525050879350505050949350505050565b610eb86110c8565b83602001518310610ede57610edd8460028660200151610ed89190611936565b610fb1565b5b8351805160208583010184815381861415610efa576001820183525b5050508390509392505050565b610f0f6110c8565b84602001518483610f20919061176f565b1115610f4857610f478560028685610f38919061176f565b610f429190611936565b610fb1565b5b6000600183610100610f5a9190611818565b610f649190611990565b90508551838682010185831982511617815281518588011115610f875784870182525b505085915050949350505050565b600081831115610fa757829050610fab565b8190505b92915050565b600082600001519050610fc48383610b93565b50610fcf8382610d42565b50505050565b828054610fe190611aa8565b90600052602060002090601f016020900481019282611003576000855561104a565b82601f1061101c57805160ff191683800117855561104a565b8280016001018555821561104a579182015b8281111561104957825182559160200191906001019061102e565b5b50905061105791906110e2565b5090565b6040518060a0016040528060008019168152602001600073ffffffffffffffffffffffffffffffffffffffff16815260200160007bffffffffffffffffffffffffffffffffffffffffffffffffffffffff19168152602001600081526020016110c26110c8565b81525090565b604051806040016040528060608152602001600081525090565b5b808211156110fb5760008160009055506001016110e3565b5090565b600061111261110d846116fb565b6116d6565b90508281526020810184848401111561112e5761112d611c2b565b5b611139848285611a66565b509392505050565b60008135905061115081611d7e565b92915050565b60008151905061116581611d95565b92915050565b60008135905061117a81611dac565b92915050565b600082601f83011261119557611194611c26565b5b81356111a58482602086016110ff565b91505092915050565b6000813590506111bd81611dc3565b92915050565b6000602082840312156111d9576111d8611c35565b5b60006111e784828501611141565b91505092915050565b60006020828403121561120657611205611c35565b5b600061121484828501611156565b91505092915050565b6000806040838503121561123457611233611c35565b5b60006112428582860161116b565b9250506020611253858286016111ae565b9150509250929050565b60006020828403121561127357611272611c35565b5b600082013567ffffffffffffffff81111561129157611290611c30565b5b61129d84828501611180565b91505092915050565b600080604083850312156112bd576112bc611c35565b5b600083013567ffffffffffffffff8111156112db576112da611c30565b5b6112e785828601611180565b925050602083013567ffffffffffffffff81111561130857611307611c30565b5b61131485828601611180565b9150509250929050565b611327816119c4565b82525050565b611336816119e2565b82525050565b611345816119ec565b82525050565b60006113568261172c565b6113608185611742565b9350611370818560208601611a75565b61137981611c3a565b840191505092915050565b61139561139082611a42565b611b0b565b82525050565b60006113a682611737565b6113b08185611753565b93506113c0818560208601611a75565b6113c981611c3a565b840191505092915050565b60006113df82611737565b6113e98185611764565b93506113f9818560208601611a75565b80840191505092915050565b6000611412600583611764565b915061141d82611c65565b600582019050919050565b6000611435601383611753565b915061144082611c8e565b602082019050919050565b6000611458602383611753565b915061146382611cb7565b604082019050919050565b600061147b600783611764565b915061148682611d06565b600782019050919050565b600061149e602883611753565b91506114a982611d2f565b604082019050919050565b6114bd81611a38565b82525050565b6114d46114cf82611a38565b611b2f565b82525050565b60006114e68285611384565b6014820191506114f682846114c3565b6020820191508190509392505050565b600061151182611405565b915061151d82856113d4565b91506115288261146e565b915061153482846113d4565b91508190509392505050565b6000602082019050611555600083018461131e565b92915050565b600061010082019050611571600083018b61131e565b61157e602083018a6114b4565b61158b604083018961132d565b611598606083018861131e565b6115a5608083018761133c565b6115b260a08301866114b4565b6115bf60c08301856114b4565b81810360e08301526115d1818461134b565b90509998505050505050505050565b60006060820190506115f5600083018661131e565b61160260208301856114b4565b8181036040830152611614818461134b565b9050949350505050565b6000602082019050611633600083018461132d565b92915050565b60006020820190508181036000830152611653818461139b565b905092915050565b6000602082019050818103600083015261167481611428565b9050919050565b600060208201905081810360008301526116948161144b565b9050919050565b600060208201905081810360008301526116b481611491565b9050919050565b60006020820190506116d060008301846114b4565b92915050565b60006116e06116f1565b90506116ec8282611ada565b919050565b6000604051905090565b600067ffffffffffffffff82111561171657611715611bf7565b5b61171f82611c3a565b9050602081019050919050565b600081519050919050565b600081519050919050565b600082825260208201905092915050565b600082825260208201905092915050565b600081905092915050565b600061177a82611a38565b915061178583611a38565b9250827fffffffffffffffffffffffffffffffffffffffffffffffffffffffffffffffff038211156117ba576117b9611b6a565b5b828201905092915050565b6000808291508390505b600185111561180f578086048111156117eb576117ea611b6a565b5b60018516156117fa5780820291505b808102905061180885611c58565b94506117cf565b94509492505050565b600061182382611a38565b915061182e83611a38565b925061185b7fffffffffffffffffffffffffffffffffffffffffffffffffffffffffffffffff8484611863565b905092915050565b600082611873576001905061192f565b81611881576000905061192f565b816001811461189757600281146118a1576118d0565b600191505061192f565b60ff8411156118b3576118b2611b6a565b5b8360020a9150848211156118ca576118c9611b6a565b5b5061192f565b5060208310610133831016604e8410600b84101617156119055782820a905083811115611900576118ff611b6a565b5b61192f565b61191284848460016117c5565b9250905081840481111561192957611928611b6a565b5b81810290505b9392505050565b600061194182611a38565b915061194c83611a38565b9250817fffffffffffffffffffffffffffffffffffffffffffffffffffffffffffffffff048311821515161561198557611984611b6a565b5b828202905092915050565b600061199b82611a38565b91506119a683611a38565b9250828210156119b9576119b8611b6a565b5b828203905092915050565b60006119cf82611a18565b9050919050565b60008115159050919050565b6000819050919050565b60007fffffffff0000000000000000000000000000000000000000000000000000000082169050919050565b600073ffffffffffffffffffffffffffffffffffffffff82169050919050565b6000819050919050565b6000611a4d82611a54565b9050919050565b6000611a5f82611a18565b9050919050565b82818337600083830152505050565b60005b83811015611a93578082015181840152602081019050611a78565b83811115611aa2576000848401525b50505050565b60006002820490506001821680611ac057607f821691505b60208210811415611ad457611ad3611bc8565b5b50919050565b611ae382611c3a565b810181811067ffffffffffffffff82111715611b0257611b01611bf7565b5b80604052505050565b6000611b1682611b1d565b9050919050565b6000611b2882611c4b565b9050919050565b6000819050919050565b6000611b4482611a38565b9150611b4f83611a38565b925082611b5f57611b5e611b99565b5b828206905092915050565b7f4e487b7100000000000000000000000000000000000000000000000000000000600052601160045260246000fd5b7f4e487b7100000000000000000000000000000000000000000000000000000000600052601260045260246000fd5b7f4e487b7100000000000000000000000000000000000000000000000000000000600052602260045260246000fd5b7f4e487b7100000000000000000000000000000000000000000000000000000000600052604160045260246000fd5b600080fd5b600080fd5b600080fd5b600080fd5b6000601f19601f8301169050919050565b60008160601b9050919050565b60008160011c9050919050565b7f3f6469643d000000000000000000000000000000000000000000000000000000600082015250565b7f43616c6c6572206973206e6f74206f776e657200000000000000000000000000600082015250565b7f756e61626c6520746f207472616e73666572416e6443616c6c20746f206f726160008201527f636c650000000000000000000000000000000000000000000000000000000000602082015250565b7f2671756573743d00000000000000000000000000000000000000000000000000600082015250565b7f536f75726365206d75737420626520746865206f7261636c65206f662074686560008201527f2072657175657374000000000000000000000000000000000000000000000000602082015250565b611d87816119c4565b8114611d9257600080fd5b50565b611d9e816119d6565b8114611da957600080fd5b50565b611db5816119e2565b8114611dc057600080fd5b50565b611dcc81611a38565b8114611dd757600080fd5b5056fea2646970667358221220d0c46734e144c185de5a6311fa48466488a733f097473bb781d4fb7875de1b0e64736f6c63430008060033",
  "immutableReferences": {},
  "source": "pragma solidity >=0.5.0 <0.9.0;\n\n/**\n * @title ChainlinkNFT\n * @dev Contract for calling chainlink when verifying NFT Mint requests\n*/\n\nimport \"@chainlink/contracts/src/v0.8/ChainlinkClient.sol\";\nimport \"./Ownable.sol\";\n\ncontract ChainlinkNFT is ChainlinkClient, Ownable{\n    using Chainlink for Chainlink.Request;\n\n    address private oracle;\n    bytes32 private jobId;\n    uint256 private fee;\n    string private baseURI;\n    uint public allowMint; \n\n    event callbackRan(uint questComplete);\n\n    /**\n     * Network: Matic Mumbai Testnet\n     * Oracle: 0x58bbdbfb6fca3129b91f0dbe372098123b38b5e9\n     * Job ID: da20aae0e4c843f6949e5cb3f7cfe8c4\n     * LINK address: 0x326C977E6efc84E512bB9C30f76E30c160eD06FB\n     * Fee: 0.01 LINK\n     */\n    \n    \n    constructor() public {\n    \tsetChainlinkToken(0x326C977E6efc84E512bB9C30f76E30c160eD06FB);\n        //setPublicChainlinkToken();\n        oracle = 0xb33D8A4e62236eA91F3a8fD7ab15A95B9B7eEc7D; //0xc8D925525CA8759812d0c299B90247917d4d4b7C; //0x58BBDbfb6fca3129b91f0DBE372098123B38B5e9; \n        jobId = \"da20aae0e4c843f6949e5cb3f7cfe8c4\"; \n        fee = 10 ** 16; // 0.01 LINK\n    }\n\n    \n\n    /**\n     * Network: Kovan\n     * Oracle: 0x2f90A6D021db21e1B2A077c5a37B3C7E75D15b7e\n     * Job ID: 29fa9aa13bf1468788b7cc4a500a45b8\n     * Fee: 0.1 LINK\n     */\n\n     /*\n    constructor() public {\n        //setPublicChainlinkToken();\n        setChainlinkToken(0xa36085F69e2889c224210F603D836748e7dC0088);\n        oracle = 0x2f90A6D021db21e1B2A077c5a37B3C7E75D15b7e;\n        jobId = \"29fa9aa13bf1468788b7cc4a500a45b8\";\n        fee = 10 ** 17; // (Varies by network and job)\n    }\n\n    */\n\n    receive() external payable {\n\n    }\n\n    function setBaseURI(string memory _newBase) public isOwner{\n        baseURI = _newBase;\n    }\n\n    function getBaseURI() public view returns(string memory){\n        return baseURI;\n    }\n\n    function requestCeramicData(string memory _did, string memory _questName) public returns (bytes32 _requestId){\n        string memory paramString = string(abi.encodePacked(\"?did=\", _did, \"&quest=\", _questName));\n    \tChainlink.Request memory req = buildChainlinkRequest(jobId, address(this), this.fulfillCeramicData.selector);\n    \treq.add(\"get\", baseURI); //this is API endpoint for server.js or later our server endpoint in cloud or fleek/ENS\n    \treq.add(\"queryparams\", paramString);\n        req.add(\"path\", \"questComplete\");\n\n        return sendChainlinkRequestTo(oracle, req, fee);\n    }\n\n    /**\n     * Callback function\n     */\n    function fulfillCeramicData(bytes32 _requestId, uint256 _questComplete) public recordChainlinkFulfillment(_requestId) {\n    \tallowMint = _questComplete;\n\n        emit callbackRan(_questComplete);\n    }\n}",
  "sourcePath": "/home/azero/Documents/Cryptos/hackfs/Discovery/packages/dapp/contracts/ChainlinkNFT.sol",
  "compiler": {
    "name": "solc",
    "version": "0.8.6+commit.11564f7e.Emscripten.clang"
  },
  "schemaVersion": "3.4.1",
  "updatedAt": "2021-08-14T16:19:07.375Z",
  "networkType": "ethereum",
  "devdoc": {
    "kind": "dev",
    "methods": {
      "changeOwner(address)": {
        "details": "Change owner",
        "params": {
          "newOwner": "address of new owner"
        }
      },
      "getOwner()": {
        "details": "Return owner address ",
        "returns": {
          "_0": "address of owner"
        }
      }
    },
    "version": 1
  },
  "userdoc": {
    "kind": "user",
    "methods": {
      "constructor": {
        "notice": "Network: Matic Mumbai Testnet Oracle: 0x58bbdbfb6fca3129b91f0dbe372098123b38b5e9 Job ID: da20aae0e4c843f6949e5cb3f7cfe8c4 LINK address: 0x326C977E6efc84E512bB9C30f76E30c160eD06FB Fee: 0.01 LINK"
      },
      "fulfillCeramicData(bytes32,uint256)": {
        "notice": "Callback function"
      }
    },
    "version": 1
  }
}